{
  "contractName": "DChallenge",
  "abi": [
    {
      "constant": true,
      "inputs": [],
      "name": "submitDelay",
      "outputs": [
        {
          "name": "",
          "type": "uint256"
        }
      ],
      "payable": false,
      "stateMutability": "view",
      "type": "function"
    },
    {
      "constant": true,
      "inputs": [
        {
          "name": "",
          "type": "address"
        }
      ],
      "name": "balances",
      "outputs": [
        {
          "name": "",
          "type": "uint256"
        }
      ],
      "payable": false,
      "stateMutability": "view",
      "type": "function"
    },
    {
      "constant": false,
      "inputs": [],
      "name": "unpause",
      "outputs": [],
      "payable": false,
      "stateMutability": "nonpayable",
      "type": "function"
    },
    {
      "constant": true,
      "inputs": [],
      "name": "paused",
      "outputs": [
        {
          "name": "",
          "type": "bool"
        }
      ],
      "payable": false,
      "stateMutability": "view",
      "type": "function"
    },
    {
      "constant": true,
      "inputs": [],
      "name": "secondsPerBlock",
      "outputs": [
        {
          "name": "",
          "type": "uint256"
        }
      ],
      "payable": false,
      "stateMutability": "view",
      "type": "function"
    },
    {
      "constant": false,
      "inputs": [],
      "name": "pause",
      "outputs": [],
      "payable": false,
      "stateMutability": "nonpayable",
      "type": "function"
    },
    {
      "constant": true,
      "inputs": [],
      "name": "txDelay",
      "outputs": [
        {
          "name": "",
          "type": "uint256"
        }
      ],
      "payable": false,
      "stateMutability": "view",
      "type": "function"
    },
    {
      "constant": true,
      "inputs": [
        {
          "name": "",
          "type": "uint256"
        }
      ],
      "name": "challenges",
      "outputs": [
        {
          "name": "bettingPrice",
          "type": "uint256"
        },
        {
          "name": "openTime",
          "type": "uint256"
        },
        {
          "name": "closeTime",
          "type": "uint256"
        },
        {
          "name": "participantsCounter",
          "type": "uint256"
        }
      ],
      "payable": false,
      "stateMutability": "view",
      "type": "function"
    },
    {
      "constant": true,
      "inputs": [],
      "name": "challengesCounter",
      "outputs": [
        {
          "name": "",
          "type": "uint256"
        }
      ],
      "payable": false,
      "stateMutability": "view",
      "type": "function"
    },
    {
      "anonymous": false,
      "inputs": [
        {
          "indexed": true,
          "name": "id",
          "type": "uint256"
        },
        {
          "indexed": true,
          "name": "title",
          "type": "bytes32"
        },
        {
          "indexed": false,
          "name": "summary",
          "type": "string"
        },
        {
          "indexed": false,
          "name": "description",
          "type": "string"
        },
        {
          "indexed": false,
          "name": "thumbnail",
          "type": "string"
        }
      ],
      "name": "challengeCreation",
      "type": "event"
    },
    {
      "anonymous": false,
      "inputs": [
        {
          "indexed": true,
          "name": "id",
          "type": "uint256"
        },
        {
          "indexed": true,
          "name": "userAddress",
          "type": "address"
        }
      ],
      "name": "challengeParticipation",
      "type": "event"
    },
    {
      "anonymous": false,
      "inputs": [
        {
          "indexed": true,
          "name": "id",
          "type": "uint256"
        },
        {
          "indexed": true,
          "name": "userAddress",
          "type": "address"
        },
        {
          "indexed": false,
          "name": "code",
          "type": "bytes32"
        },
        {
          "indexed": false,
          "name": "videoDuration",
          "type": "uint256"
        },
        {
          "indexed": false,
          "name": "ipfsHash",
          "type": "string"
        }
      ],
      "name": "challengeSubmission",
      "type": "event"
    },
    {
      "anonymous": false,
      "inputs": [
        {
          "indexed": true,
          "name": "id",
          "type": "uint256"
        },
        {
          "indexed": true,
          "name": "winner",
          "type": "bool"
        },
        {
          "indexed": true,
          "name": "winnerAddress",
          "type": "address"
        },
        {
          "indexed": false,
          "name": "prizeAmount",
          "type": "uint256"
        },
        {
          "indexed": false,
          "name": "randomNumber",
          "type": "uint256"
        }
      ],
      "name": "challengeClosed",
      "type": "event"
    },
    {
      "anonymous": false,
      "inputs": [
        {
          "indexed": true,
          "name": "id",
          "type": "uint256"
        },
        {
          "indexed": false,
          "name": "message",
          "type": "string"
        }
      ],
      "name": "LogNewOraclizeQuery",
      "type": "event"
    },
    {
      "anonymous": false,
      "inputs": [],
      "name": "Pause",
      "type": "event"
    },
    {
      "anonymous": false,
      "inputs": [],
      "name": "Unpause",
      "type": "event"
    },
    {
      "constant": false,
      "inputs": [
        {
          "name": "_submitDelay",
          "type": "uint256"
        },
        {
          "name": "_txDelay",
          "type": "uint256"
        },
        {
          "name": "_secondsPerBlock",
          "type": "uint256"
        }
      ],
      "name": "initialize",
      "outputs": [],
      "payable": false,
      "stateMutability": "nonpayable",
      "type": "function"
    },
    {
      "constant": false,
      "inputs": [
        {
          "name": "_submitDelay",
          "type": "uint256"
        }
      ],
      "name": "setSubmitDelay",
      "outputs": [],
      "payable": false,
      "stateMutability": "nonpayable",
      "type": "function"
    },
    {
      "constant": false,
      "inputs": [
        {
          "name": "_txDelay",
          "type": "uint256"
        }
      ],
      "name": "setTxDelay",
      "outputs": [],
      "payable": false,
      "stateMutability": "nonpayable",
      "type": "function"
    },
    {
      "constant": false,
      "inputs": [
        {
          "name": "_secondsPerBlock",
          "type": "uint256"
        }
      ],
      "name": "setSecondsPerBlock",
      "outputs": [],
      "payable": false,
      "stateMutability": "nonpayable",
      "type": "function"
    },
    {
      "constant": false,
      "inputs": [
        {
          "name": "_title",
          "type": "bytes32"
        },
        {
          "name": "_summary",
          "type": "string"
        },
        {
          "name": "_description",
          "type": "string"
        },
        {
          "name": "_thumbnail",
          "type": "string"
        },
        {
          "name": "_openTime",
          "type": "uint256"
        },
        {
          "name": "_closeTime",
          "type": "uint256"
        },
        {
          "name": "_bettingPrice",
          "type": "uint256"
        }
      ],
      "name": "createChallenge",
      "outputs": [
        {
          "name": "",
          "type": "bool"
        }
      ],
      "payable": false,
      "stateMutability": "nonpayable",
      "type": "function"
    },
    {
      "constant": false,
      "inputs": [
        {
          "name": "_challengeId",
          "type": "uint256"
        }
      ],
      "name": "participate",
      "outputs": [],
      "payable": true,
      "stateMutability": "payable",
      "type": "function"
    },
    {
      "constant": false,
      "inputs": [
        {
          "name": "_challengeId",
          "type": "uint256"
        },
        {
          "name": "_blockNumber",
          "type": "uint256"
        },
        {
          "name": "_code",
          "type": "bytes32"
        },
        {
          "name": "_videoDuration",
          "type": "uint256"
        },
        {
          "name": "_ipfsHash",
          "type": "string"
        }
      ],
      "name": "submit",
      "outputs": [
        {
          "name": "",
          "type": "bool"
        }
      ],
      "payable": false,
      "stateMutability": "nonpayable",
      "type": "function"
    },
    {
      "constant": false,
      "inputs": [
        {
          "name": "_amount",
          "type": "uint256"
        }
      ],
      "name": "userWithdraw",
      "outputs": [],
      "payable": false,
      "stateMutability": "nonpayable",
      "type": "function"
    },
    {
      "constant": false,
      "inputs": [],
      "name": "kill",
      "outputs": [],
      "payable": false,
      "stateMutability": "nonpayable",
      "type": "function"
    },
    {
      "constant": false,
      "inputs": [
        {
          "name": "myid",
          "type": "bytes32"
        },
        {
          "name": "result",
          "type": "string"
        }
      ],
      "name": "__callback",
      "outputs": [],
      "payable": false,
      "stateMutability": "nonpayable",
      "type": "function"
    },
    {
      "constant": false,
      "inputs": [
        {
          "name": "_myid",
          "type": "bytes32"
        },
        {
          "name": "_result",
          "type": "string"
        },
        {
          "name": "_proof",
          "type": "bytes"
        }
      ],
      "name": "__callback",
      "outputs": [],
      "payable": false,
      "stateMutability": "nonpayable",
      "type": "function"
    },
    {
      "constant": true,
      "inputs": [
        {
          "name": "_challengeId",
          "type": "uint256"
        },
        {
          "name": "_userAddress",
          "type": "address"
        }
      ],
      "name": "userIsParticipating",
      "outputs": [
        {
          "name": "",
          "type": "bool"
        }
      ],
      "payable": false,
      "stateMutability": "view",
      "type": "function"
    },
    {
      "constant": true,
      "inputs": [
        {
          "name": "_challengeId",
          "type": "uint256"
        },
        {
          "name": "_userAddress",
          "type": "address"
        }
      ],
      "name": "userHasSubmitted",
      "outputs": [
        {
          "name": "",
          "type": "bool"
        }
      ],
      "payable": false,
      "stateMutability": "view",
      "type": "function"
    }
  ],
  "bytecode": "0x608060405260008060006101000a81548160ff02191690831515021790555034801561002a57600080fd5b5061368d8061003a6000396000f300608060405260043610610128576000357c0100000000000000000000000000000000000000000000000000000000900463ffffffff1680630484c7191461012d5780631dc9a5391461015a57806327dc297e1461018557806327e235e3146101fc57806338bbfa50146102535780633b9056bf146103105780633f4ba83a1461033d57806341c0e1b5146103545780635663896e1461036b5780635c975abb146103985780637a7d4937146103c757806380d85911146103f25780638456cb5914610433578063845c93061461044a578063884775271461046a5780638f1d3776146104955780639ddeb1f8146104eb578063c2482a7314610516578063c3dd1f9414610543578063c97d234e146105a8578063e7ccce8c14610627578063e9f755ba146106d6575b600080fd5b34801561013957600080fd5b506101586004803603810190808035906020019092919050505061073b565b005b34801561016657600080fd5b5061016f610786565b6040518082815260200191505060405180910390f35b34801561019157600080fd5b506101fa6004803603810190808035600019169060200190929190803590602001908201803590602001908080601f016020809104026020016040519081016040528093929190818152602001838380828437820191505050505050919291929050505061078c565b005b34801561020857600080fd5b5061023d600480360381019080803573ffffffffffffffffffffffffffffffffffffffff1690602001909291905050506107cf565b6040518082815260200191505060405180910390f35b34801561025f57600080fd5b5061030e6004803603810190808035600019169060200190929190803590602001908201803590602001908080601f0160208091040260200160405190810160405280939291908181526020018383808284378201915050505050509192919290803590602001908201803590602001908080601f01602080910402602001604051908101604052809392919081815260200183838082843782019150505050505091929192905050506107e7565b005b34801561031c57600080fd5b5061033b6004803603810190808035906020019092919050505061088d565b005b34801561034957600080fd5b5061035261098d565b005b34801561036057600080fd5b50610369610a30565b005b34801561037757600080fd5b5061039660048036038101908080359060200190929190505050610a91565b005b3480156103a457600080fd5b506103ad610adc565b604051808215151515815260200191505060405180910390f35b3480156103d357600080fd5b506103dc610aee565b6040518082815260200191505060405180910390f35b3480156103fe57600080fd5b50610431600480360381019080803590602001909291908035906020019092919080359060200190929190505050610af4565b005b34801561043f57600080fd5b50610448610b5f565b005b61046860048036038101908080359060200190929190505050610c03565b005b34801561047657600080fd5b5061047f610d60565b6040518082815260200191505060405180910390f35b3480156104a157600080fd5b506104c060048036038101908080359060200190929190505050610d66565b6040518085815260200184815260200183815260200182815260200194505050505060405180910390f35b3480156104f757600080fd5b50610500610d96565b6040518082815260200191505060405180910390f35b34801561052257600080fd5b5061054160048036038101908080359060200190929190505050610d9c565b005b34801561054f57600080fd5b5061058e60048036038101908080359060200190929190803573ffffffffffffffffffffffffffffffffffffffff169060200190929190505050610de7565b604051808215151515815260200191505060405180910390f35b3480156105b457600080fd5b5061060d6004803603810190808035906020019092919080359060200190929190803560001916906020019092919080359060200190929190803590602001908201803590602001919091929391929390505050610e52565b604051808215151515815260200191505060405180910390f35b34801561063357600080fd5b506106bc600480360381019080803560001916906020019092919080359060200190820180359060200191909192939192939080359060200190820180359060200191909192939192939080359060200190820180359060200191909192939192939080359060200190929190803590602001909291908035906020019092919050505061107c565b604051808215151515815260200191505060405180910390f35b3480156106e257600080fd5b5061072160048036038101908080359060200190929190803573ffffffffffffffffffffffffffffffffffffffff16906020019092919050505061125c565b604051808215151515815260200191505060405180910390f35b6107436112c7565b73ffffffffffffffffffffffffffffffffffffffff163373ffffffffffffffffffffffffffffffffffffffff1614151561077c57600080fd5b80600a8190555050565b60095481565b6107cb828260006040519080825280601f01601f1916602001820160405280156107c55781602001602082028038833980820191505090505b506107e7565b5050565b600d6020528060005260406000206000915090505481565b6000809054906101000a900460ff1615151561080257600080fd5b600c6000846000191660001916815260200190815260200160002060009054906101000a900460ff16151561083657600080fd5b61083e61130a565b73ffffffffffffffffffffffffffffffffffffffff163373ffffffffffffffffffffffffffffffffffffffff1614151561087757600080fd5b6108886108838361166c565b611680565b505050565b6000809054906101000a900460ff161515156108a857600080fd5b80600d60003373ffffffffffffffffffffffffffffffffffffffff1673ffffffffffffffffffffffffffffffffffffffff16815260200190815260200160002054101515156108f657600080fd5b80600d60003373ffffffffffffffffffffffffffffffffffffffff1673ffffffffffffffffffffffffffffffffffffffff168152602001908152602001600020600082825403925050819055503373ffffffffffffffffffffffffffffffffffffffff166108fc829081150290604051600060405180830381858888f19350505050158015610989573d6000803e3d6000fd5b5050565b6109956112c7565b73ffffffffffffffffffffffffffffffffffffffff163373ffffffffffffffffffffffffffffffffffffffff161415156109ce57600080fd5b6000809054906101000a900460ff1615156109e857600080fd5b60008060006101000a81548160ff0219169083151502179055507f7805862f689e2f13df9f062ff482ad3ad112aca9e0847911ed832e158c525b3360405160405180910390a1565b610a386112c7565b73ffffffffffffffffffffffffffffffffffffffff163373ffffffffffffffffffffffffffffffffffffffff16141515610a7157600080fd5b610a796112c7565b73ffffffffffffffffffffffffffffffffffffffff16ff5b610a996112c7565b73ffffffffffffffffffffffffffffffffffffffff163373ffffffffffffffffffffffffffffffffffffffff16141515610ad257600080fd5b80600b8190555050565b6000809054906101000a900460ff1681565b600b5481565b610b4560017f01000000000000000000000000000000000000000000000000000000000000000260107f010000000000000000000000000000000000000000000000000000000000000002176117d3565b8260098190555081600a8190555080600b81905550505050565b610b676112c7565b73ffffffffffffffffffffffffffffffffffffffff163373ffffffffffffffffffffffffffffffffffffffff16141515610ba057600080fd5b6000809054906101000a900460ff16151515610bbb57600080fd5b60016000806101000a81548160ff0219169083151502179055507f6985a02210a168e66602d3235cb6db0e70f92b3ba4d376a33c0f3d9434bff62560405160405180910390a1565b8033610c0f828261125c565b151515610c1b57600080fd5b6000809054906101000a900460ff16151515610c3657600080fd5b82600a5442036005600083815260200190815260200160002060010154111515610c5f57600080fd5b60056000858152602001908152602001600020600001543410151515610c8457600080fd5b60016005600086815260200190815260200160002060050160003373ffffffffffffffffffffffffffffffffffffffff1673ffffffffffffffffffffffffffffffffffffffff16815260200190815260200160002060006101000a81548160ff02191690831515021790555060056000858152602001908152602001600020600301600081548092919060010191905055503373ffffffffffffffffffffffffffffffffffffffff16847fd282a62c10048776940679fa353c80687d4262af326745f26ca333e5464597a460405160405180910390a350505050565b600a5481565b60056020528060005260406000206000915090508060000154908060010154908060020154908060030154905084565b60065481565b610da46112c7565b73ffffffffffffffffffffffffffffffffffffffff163373ffffffffffffffffffffffffffffffffffffffff16141515610ddd57600080fd5b8060098190555050565b60006005600084815260200190815260200160002060060160008373ffffffffffffffffffffffffffffffffffffffff1673ffffffffffffffffffffffffffffffffffffffff16815260200190815260200160002060009054906101000a900460ff16905092915050565b60008633610e608282610de7565b151515610e6c57600080fd5b6000809054906101000a900460ff16151515610e8757600080fd5b88426005600083815260200190815260200160002060010154108015610ec65750600a5442036005600083815260200190815260200160002060020154115b1515610ed157600080fd5b610edb8a3361125c565b1515610ee657600080fd5b60011515610ef68a8a338b611b5d565b1515141515610f0457600080fd5b600560008b81526020019081526020016000206004013390806001815401808255809150509060018203906000526020600020016000909192909190916101000a81548173ffffffffffffffffffffffffffffffffffffffff021916908373ffffffffffffffffffffffffffffffffffffffff160217905550506001600560008c815260200190815260200160002060060160003373ffffffffffffffffffffffffffffffffffffffff1673ffffffffffffffffffffffffffffffffffffffff16815260200190815260200160002060006101000a81548160ff0219169083151502179055503373ffffffffffffffffffffffffffffffffffffffff168a7fba8588b5dc9157c5d1badc124a361e87fb8bbc62a737fff499b5c8186a7d6af98a8a8a8a60405180856000191660001916815260200184815260200180602001828103825284848281815260200192508082843782019150509550505050505060405180910390a3600193505050509695505050505050565b60006110866112c7565b73ffffffffffffffffffffffffffffffffffffffff163373ffffffffffffffffffffffffffffffffffffffff161415156110bf57600080fd5b60a0604051908101604052808381526020018581526020018481526020016000815260200160006040519080825280602002602001820160405280156111145781602001602082028038833980820191505090505b508152506005600060065481526020019081526020016000206000820151816000015560208201518160010155604082015181600201556060820151816003015560808201518160040190805190602001906111719291906134c3565b5090505061117e83611cb9565b61119f60056000600654815260200190815260200160002060020154611f01565b8a600019166006547f61b64fc67f2c6f0a588e5383bd3b3a65452b4b6f647190857d4644c480dffe288c8c8c8c8c8c6040518080602001806020018060200184810384528a8a8281815260200192508082843782019150508481038352888882818152602001925080828437820191505084810382528686828181526020019250808284378201915050995050505050505050505060405180910390a36006600081548092919060010191905055509a9950505050505050505050565b60006005600084815260200190815260200160002060050160008373ffffffffffffffffffffffffffffffffffffffff1673ffffffffffffffffffffffffffffffffffffffff16815260200190815260200160002060009054906101000a900460ff16905092915050565b60008060405180807f6f72672e646368616c6c656e67652e70726f78792e6f776e6572000000000000815250601a01905060405180910390209050805491505090565b600080600060019054906101000a900473ffffffffffffffffffffffffffffffffffffffff1673ffffffffffffffffffffffffffffffffffffffff16148061137c5750600061137a600060019054906101000a900473ffffffffffffffffffffffffffffffffffffffff166121b4565b145b1561138d5761138b60006121bf565b505b600060019054906101000a900473ffffffffffffffffffffffffffffffffffffffff1673ffffffffffffffffffffffffffffffffffffffff166338cc48316040518163ffffffff167c0100000000000000000000000000000000000000000000000000000000028152600401602060405180830381600087803b15801561141357600080fd5b505af1158015611427573d6000803e3d6000fd5b505050506040513d602081101561143d57600080fd5b810190808051906020019092919050505073ffffffffffffffffffffffffffffffffffffffff16600160009054906101000a900473ffffffffffffffffffffffffffffffffffffffff1673ffffffffffffffffffffffffffffffffffffffff161415156115a657600060019054906101000a900473ffffffffffffffffffffffffffffffffffffffff1673ffffffffffffffffffffffffffffffffffffffff166338cc48316040518163ffffffff167c0100000000000000000000000000000000000000000000000000000000028152600401602060405180830381600087803b15801561152a57600080fd5b505af115801561153e573d6000803e3d6000fd5b505050506040513d602081101561155457600080fd5b8101908080519060200190929190505050600160006101000a81548173ffffffffffffffffffffffffffffffffffffffff021916908373ffffffffffffffffffffffffffffffffffffffff1602179055505b600160009054906101000a900473ffffffffffffffffffffffffffffffffffffffff1673ffffffffffffffffffffffffffffffffffffffff1663c281d19e6040518163ffffffff167c0100000000000000000000000000000000000000000000000000000000028152600401602060405180830381600087803b15801561162c57600080fd5b505af1158015611640573d6000803e3d6000fd5b505050506040513d602081101561165657600080fd5b8101908080519060200190929190505050905090565b60006116798260006121d0565b9050919050565b6000806000600760085481548110151561169657fe5b9060005260206000200154925060076008548154811015156116b457fe5b90600052602060002001600090556008600081548092919060010191905055506001600560008581526020019081526020016000206004018054905010151561176f5761170183856124c4565b915061170d838361254a565b90508173ffffffffffffffffffffffffffffffffffffffff1660011515847fea4a4e10cc119c083133aaae12d6854a4ada68438bf790c8dd8b8492077361938488604051808381526020018281526020019250505060405180910390a46117cd565b600073ffffffffffffffffffffffffffffffffffffffff1660001515847fea4a4e10cc119c083133aaae12d6854a4ada68438bf790c8dd8b849207736193600080604051808381526020018281526020019250505060405180910390a45b50505050565b60008060019054906101000a900473ffffffffffffffffffffffffffffffffffffffff1673ffffffffffffffffffffffffffffffffffffffff16148061184357506000611841600060019054906101000a900473ffffffffffffffffffffffffffffffffffffffff166121b4565b145b156118545761185260006121bf565b505b600060019054906101000a900473ffffffffffffffffffffffffffffffffffffffff1673ffffffffffffffffffffffffffffffffffffffff166338cc48316040518163ffffffff167c0100000000000000000000000000000000000000000000000000000000028152600401602060405180830381600087803b1580156118da57600080fd5b505af11580156118ee573d6000803e3d6000fd5b505050506040513d602081101561190457600080fd5b810190808051906020019092919050505073ffffffffffffffffffffffffffffffffffffffff16600160009054906101000a900473ffffffffffffffffffffffffffffffffffffffff1673ffffffffffffffffffffffffffffffffffffffff16141515611a6d57600060019054906101000a900473ffffffffffffffffffffffffffffffffffffffff1673ffffffffffffffffffffffffffffffffffffffff166338cc48316040518163ffffffff167c0100000000000000000000000000000000000000000000000000000000028152600401602060405180830381600087803b1580156119f157600080fd5b505af1158015611a05573d6000803e3d6000fd5b505050506040513d6020811015611a1b57600080fd5b8101908080519060200190929190505050600160006101000a81548173ffffffffffffffffffffffffffffffffffffffff021916908373ffffffffffffffffffffffffffffffffffffffff1602179055505b600160009054906101000a900473ffffffffffffffffffffffffffffffffffffffff1673ffffffffffffffffffffffffffffffffffffffff1663688dcfd7826040518263ffffffff167c010000000000000000000000000000000000000000000000000000000002815260040180827effffffffffffffffffffffffffffffffffffffffffffffffffffffffffffff19167effffffffffffffffffffffffffffffffffffffffffffffffffffffffffffff19168152602001915050600060405180830381600087803b158015611b4257600080fd5b505af1158015611b56573d6000803e3d6000fd5b5050505050565b600080600080600080894094508785604051602001808373ffffffffffffffffffffffffffffffffffffffff1673ffffffffffffffffffffffffffffffffffffffff166c010000000000000000000000000281526014018260001916600019168152602001925050506040516020818303038152906040526040518082805190602001908083835b602083101515611c0a5780518252602082019150602081019050602083039250611be5565b6001836020036101000a0380198251168184511680821785525050505050509050019150506040518091039020935083600019168960001916141515611c535760009550611cac565b439250611c6b6009548861262d90919063ffffffff16565b9150611c94600b54611c868c8661264990919063ffffffff16565b61266290919063ffffffff16565b905081811115611ca75760009550611cac565b600195505b5050505050949350505050565b60008060008060008060065495506007805490509450600854935083851415611d0d576007869080600181540180825580915050906001820390600052602060002001600090919290919091505550611ef8565b6001850392505b8383101515611ef7576001850383148015611d5e575060056000600785815481101515611d3d57fe5b90600052602060002001548152602001908152602001600020600201548710155b15611d94576007869080600181540180825580915050906001820390600052602060002001600090919290919091505550611ef7565b60056000600785815481101515611da757fe5b906000526020600020015481526020019081526020016000206002015487101515611e585760018501600781611ddd919061354d565b508491505b82821115611e3257600760018303815481101515611dfc57fe5b9060005260206000200154600783815481101515611e1657fe5b9060005260206000200181905550818060019003925050611de2565b85600760018501815481101515611e4557fe5b9060005260206000200181905550611ef7565b83831415611ee95760018501600781611e71919061354d565b508490505b82811115611ec657600760018203815481101515611e9057fe5b9060005260206000200154600782815481101515611eaa57fe5b9060005260206000200181905550808060019003915050611e76565b85600784815481101515611ed657fe5b9060005260206000200181905550611ef7565b828060019003935050611d14565b5b50505050505050565b6000803073ffffffffffffffffffffffffffffffffffffffff1631611f5a6040805190810160405280600381526020017f55524c000000000000000000000000000000000000000000000000000000000081525061269a565b111561201c576006547f2bbfff2943facf1802cc8ceb30a7f5f91dcf857cbd8ffd90254ddbe3f769f29760405180806020018281038252604b8152602001807f4f7261636c697a6520717565727920776173204e4f542073656e742c20706c6581526020017f6173652061646420736f6d652045544820746f20636f76657220666f7220746881526020017f652071756572792066656500000000000000000000000000000000000000000081525060600191505060405180910390a26121af565b6006547f2bbfff2943facf1802cc8ceb30a7f5f91dcf857cbd8ffd90254ddbe3f769f2976040518080602001828103825260358152602001807f4f7261636c697a65207175657279207761732073656e742c207374616e64696e81526020017f6720627920666f722074686520616e737765722e2e000000000000000000000081525060400191505060405180910390a2600a54428403039150612178826040805190810160405280600381526020017f55524c0000000000000000000000000000000000000000000000000000000000815250608060405190810160405280605981526020017f68747470733a2f2f7777772e72616e646f6d2e6f72672f696e7465676572732f81526020017f3f6e756d3d31266d696e3d31266d61783d313030303026636f6c3d312662617381526020017f653d313026666f726d61743d706c61696e26726e643d6e657700000000000000815250612a6e565b90506001600c6000836000191660001916815260200190815260200160002060006101000a81548160ff0219169083151502179055505b505050565b6000813b9050919050565b60006121c9613013565b9050919050565b6000606060008060008693506000925060009150600090505b83518110156124a55760307f010000000000000000000000000000000000000000000000000000000000000002848281518110151561222457fe5b9060200101517f010000000000000000000000000000000000000000000000000000000000000090047f0100000000000000000000000000000000000000000000000000000000000000027effffffffffffffffffffffffffffffffffffffffffffffffffffffffffffff19161015801561233c575060397f01000000000000000000000000000000000000000000000000000000000000000284828151811015156122cc57fe5b9060200101517f010000000000000000000000000000000000000000000000000000000000000090047f0100000000000000000000000000000000000000000000000000000000000000027effffffffffffffffffffffffffffffffffffffffffffffffffffffffffffff191611155b156123ed57811561235f576000861415612355576124a5565b8580600190039650505b600a830292506030848281518110151561237557fe5b9060200101517f010000000000000000000000000000000000000000000000000000000000000090047f0100000000000000000000000000000000000000000000000000000000000000027f010000000000000000000000000000000000000000000000000000000000000090040383019250612498565b602e7f010000000000000000000000000000000000000000000000000000000000000002848281518110151561241f57fe5b9060200101517f010000000000000000000000000000000000000000000000000000000000000090047f0100000000000000000000000000000000000000000000000000000000000000027effffffffffffffffffffffffffffffffffffffffffffffffffffffffffffff1916141561249757600191505b5b80806001019150506121e9565b60008611156124b75785600a0a830292505b8294505050505092915050565b60008060018060056000878152602001908152602001600020600401805490500301838115156124f057fe5b069050600560008581526020019081526020016000206004018181548110151561251657fe5b9060005260206000200160009054906101000a900473ffffffffffffffffffffffffffffffffffffffff1691505092915050565b60008061258c6005600086815260200190815260200160002060000154600560008781526020019081526020016000206003015461266290919063ffffffff16565b90506125e081600d60008673ffffffffffffffffffffffffffffffffffffffff1673ffffffffffffffffffffffffffffffffffffffff1681526020019081526020016000205461262d90919063ffffffff16565b600d60008573ffffffffffffffffffffffffffffffffffffffff1673ffffffffffffffffffffffffffffffffffffffff168152602001908152602001600020819055508091505092915050565b6000818301905082811015151561264057fe5b80905092915050565b600082821115151561265757fe5b818303905092915050565b6000808314156126755760009050612694565b818302905081838281151561268657fe5b0414151561269057fe5b8090505b92915050565b600080600060019054906101000a900473ffffffffffffffffffffffffffffffffffffffff1673ffffffffffffffffffffffffffffffffffffffff16148061270c5750600061270a600060019054906101000a900473ffffffffffffffffffffffffffffffffffffffff166121b4565b145b1561271d5761271b60006121bf565b505b600060019054906101000a900473ffffffffffffffffffffffffffffffffffffffff1673ffffffffffffffffffffffffffffffffffffffff166338cc48316040518163ffffffff167c0100000000000000000000000000000000000000000000000000000000028152600401602060405180830381600087803b1580156127a357600080fd5b505af11580156127b7573d6000803e3d6000fd5b505050506040513d60208110156127cd57600080fd5b810190808051906020019092919050505073ffffffffffffffffffffffffffffffffffffffff16600160009054906101000a900473ffffffffffffffffffffffffffffffffffffffff1673ffffffffffffffffffffffffffffffffffffffff1614151561293657600060019054906101000a900473ffffffffffffffffffffffffffffffffffffffff1673ffffffffffffffffffffffffffffffffffffffff166338cc48316040518163ffffffff167c0100000000000000000000000000000000000000000000000000000000028152600401602060405180830381600087803b1580156128ba57600080fd5b505af11580156128ce573d6000803e3d6000fd5b505050506040513d60208110156128e457600080fd5b8101908080519060200190929190505050600160006101000a81548173ffffffffffffffffffffffffffffffffffffffff021916908373ffffffffffffffffffffffffffffffffffffffff1602179055505b600160009054906101000a900473ffffffffffffffffffffffffffffffffffffffff1673ffffffffffffffffffffffffffffffffffffffff1663524f3889836040518263ffffffff167c01000000000000000000000000000000000000000000000000000000000281526004018080602001828103825283818151815260200191508051906020019080838360005b838110156129e05780820151818401526020810190506129c5565b50505050905090810190601f168015612a0d5780820380516001836020036101000a031916815260200191505b5092505050602060405180830381600087803b158015612a2c57600080fd5b505af1158015612a40573d6000803e3d6000fd5b505050506040513d6020811015612a5657600080fd5b81019080805190602001909291905050509050919050565b60008060008060019054906101000a900473ffffffffffffffffffffffffffffffffffffffff1673ffffffffffffffffffffffffffffffffffffffff161480612ae157506000612adf600060019054906101000a900473ffffffffffffffffffffffffffffffffffffffff166121b4565b145b15612af257612af060006121bf565b505b600060019054906101000a900473ffffffffffffffffffffffffffffffffffffffff1673ffffffffffffffffffffffffffffffffffffffff166338cc48316040518163ffffffff167c0100000000000000000000000000000000000000000000000000000000028152600401602060405180830381600087803b158015612b7857600080fd5b505af1158015612b8c573d6000803e3d6000fd5b505050506040513d6020811015612ba257600080fd5b810190808051906020019092919050505073ffffffffffffffffffffffffffffffffffffffff16600160009054906101000a900473ffffffffffffffffffffffffffffffffffffffff1673ffffffffffffffffffffffffffffffffffffffff16141515612d0b57600060019054906101000a900473ffffffffffffffffffffffffffffffffffffffff1673ffffffffffffffffffffffffffffffffffffffff166338cc48316040518163ffffffff167c0100000000000000000000000000000000000000000000000000000000028152600401602060405180830381600087803b158015612c8f57600080fd5b505af1158015612ca3573d6000803e3d6000fd5b505050506040513d6020811015612cb957600080fd5b8101908080519060200190929190505050600160006101000a81548173ffffffffffffffffffffffffffffffffffffffff021916908373ffffffffffffffffffffffffffffffffffffffff1602179055505b600160009054906101000a900473ffffffffffffffffffffffffffffffffffffffff1673ffffffffffffffffffffffffffffffffffffffff1663524f3889856040518263ffffffff167c01000000000000000000000000000000000000000000000000000000000281526004018080602001828103825283818151815260200191508051906020019080838360005b83811015612db5578082015181840152602081019050612d9a565b50505050905090810190601f168015612de25780820380516001836020036101000a031916815260200191505b5092505050602060405180830381600087803b158015612e0157600080fd5b505af1158015612e15573d6000803e3d6000fd5b505050506040513d6020811015612e2b57600080fd5b8101908080519060200190929190505050905062030d403a02670de0b6b3a764000001811115612e61576000600102915061300b565b600160009054906101000a900473ffffffffffffffffffffffffffffffffffffffff1673ffffffffffffffffffffffffffffffffffffffff1663adf59f99828787876040518563ffffffff167c0100000000000000000000000000000000000000000000000000000000028152600401808481526020018060200180602001838103835285818151815260200191508051906020019080838360005b83811015612f18578082015181840152602081019050612efd565b50505050905090810190601f168015612f455780820380516001836020036101000a031916815260200191505b50838103825284818151815260200191508051906020019080838360005b83811015612f7e578082015181840152602081019050612f63565b50505050905090810190601f168015612fab5780820380516001836020036101000a031916815260200191505b50955050505050506020604051808303818588803b158015612fcc57600080fd5b505af1158015612fe0573d6000803e3d6000fd5b50505050506040513d6020811015612ff757600080fd5b810190808051906020019092919050505091505b509392505050565b600080613033731d3b2638a7cc9f2cb3d298a3da7a90b67e5506ed6121b4565b11156130d557731d3b2638a7cc9f2cb3d298a3da7a90b67e5506ed600060016101000a81548173ffffffffffffffffffffffffffffffffffffffff021916908373ffffffffffffffffffffffffffffffffffffffff1602179055506130cc6040805190810160405280600b81526020017f6574685f6d61696e6e65740000000000000000000000000000000000000000008152506134a9565b600190506134a6565b60006130f473c03a2615d5efaf5f49f60b7bb6583eaec212fdf16121b4565b11156131965773c03a2615d5efaf5f49f60b7bb6583eaec212fdf1600060016101000a81548173ffffffffffffffffffffffffffffffffffffffff021916908373ffffffffffffffffffffffffffffffffffffffff16021790555061318d6040805190810160405280600c81526020017f6574685f726f707374656e3300000000000000000000000000000000000000008152506134a9565b600190506134a6565b60006131b573b7a07bcf2ba2f2703b24c0691b5278999c59ac7e6121b4565b11156132575773b7a07bcf2ba2f2703b24c0691b5278999c59ac7e600060016101000a81548173ffffffffffffffffffffffffffffffffffffffff021916908373ffffffffffffffffffffffffffffffffffffffff16021790555061324e6040805190810160405280600981526020017f6574685f6b6f76616e00000000000000000000000000000000000000000000008152506134a9565b600190506134a6565b600061327673146500cfd35b22e4a392fe0adc06de1a1368ed486121b4565b11156133185773146500cfd35b22e4a392fe0adc06de1a1368ed48600060016101000a81548173ffffffffffffffffffffffffffffffffffffffff021916908373ffffffffffffffffffffffffffffffffffffffff16021790555061330f6040805190810160405280600b81526020017f6574685f72696e6b6562790000000000000000000000000000000000000000008152506134a9565b600190506134a6565b6000613337736f485c8bf6fc43ea212e93bbf8ce046c7f1cb4756121b4565b111561339b57736f485c8bf6fc43ea212e93bbf8ce046c7f1cb475600060016101000a81548173ffffffffffffffffffffffffffffffffffffffff021916908373ffffffffffffffffffffffffffffffffffffffff160217905550600190506134a6565b60006133ba7320e12a1f859b3feae5fb2a0a32c18f5a65555bbf6121b4565b111561341e577320e12a1f859b3feae5fb2a0a32c18f5a65555bbf600060016101000a81548173ffffffffffffffffffffffffffffffffffffffff021916908373ffffffffffffffffffffffffffffffffffffffff160217905550600190506134a6565b600061343d7351efaf4c8b3c9afbd5ab9f4bbc82784ab6ef8faa6121b4565b11156134a1577351efaf4c8b3c9afbd5ab9f4bbc82784ab6ef8faa600060016101000a81548173ffffffffffffffffffffffffffffffffffffffff021916908373ffffffffffffffffffffffffffffffffffffffff160217905550600190506134a6565b600090505b90565b80600290805190602001906134bf929190613579565b5050565b82805482825590600052602060002090810192821561353c579160200282015b8281111561353b5782518260006101000a81548173ffffffffffffffffffffffffffffffffffffffff021916908373ffffffffffffffffffffffffffffffffffffffff160217905550916020019190600101906134e3565b5b50905061354991906135f9565b5090565b81548183558181111561357457818360005260206000209182019101613573919061363c565b5b505050565b828054600181600116156101000203166002900490600052602060002090601f016020900481019282601f106135ba57805160ff19168380011785556135e8565b828001600101855582156135e8579182015b828111156135e75782518255916020019190600101906135cc565b5b5090506135f5919061363c565b5090565b61363991905b8082111561363557600081816101000a81549073ffffffffffffffffffffffffffffffffffffffff0219169055506001016135ff565b5090565b90565b61365e91905b8082111561365a576000816000905550600101613642565b5090565b905600a165627a7a72305820a7b3790809e85d4915730819b4eb007afe584e7e9f0b5173fe75b784668deded0029",
  "source": "pragma solidity ^0.4.24;\n\nimport \"oraclize-api/contracts/usingOraclize.sol\";\nimport \"./Ownable.sol\";\nimport \"./Pausable.sol\";\nimport \"../libraries/SafeMath.sol\";\n\n/** @title DChallenge. */\ncontract DChallenge is Ownable, Pausable, usingOraclize {\n\n    using SafeMath for uint256;\n\n    /** @dev Check if the openTime of a challenges is bigger that the current block's timestamp.\n      * @param _id ID of the challenge to be checked.\n      */\n    modifier challengeIsOpen(uint _id) {\n        require(challenges[_id].openTime > (now - txDelay));\n        _;\n    }\n\n    /** @dev Check if the current block's timestamp is bigger than challenge's openTime and lower than challenge's closeTime.\n      * @param _id ID of the challenge to be checked.\n      */\n    modifier challengeIsOngoing(uint _id) {\n        require((challenges[_id].openTime < now) && (challenges[_id].closeTime > (now - txDelay)));\n        _;\n    }\n\n    /** @dev Check the user not participate twice for the same challenge\n      * @param _id ID of the challenge to be checked.\n      * @param _userAddress Address of the user.\n      */\n    modifier userHasNotParticipated(uint _id, address _userAddress) {\n        require(!userIsParticipating(_id, _userAddress));\n        _;\n    }\n\n    /** @dev Check the user not submit twice for the same challenge\n      * @param _id ID of the challenge to be checked.\n      * @param _userAddress Address of the user.\n      */\n    modifier userHasNotSubmitted(uint _id, address _userAddress) {\n        require(!userHasSubmitted(_id, _userAddress));\n        _;\n    }\n\n    /** @dev Event to log when a challenge has been closed.\n      * @param id ID of the challenge.\n      * @param title Title of the challenge.\n      * @param summary Summary of the new challenge.\n      * @param description Description of the new challenge.\n      * @param thumbnail Thumbnail of the new challenge.\n      */\n    event challengeCreation(\n        uint indexed id,\n        bytes32 indexed title,\n        string summary,\n        string description,\n        string thumbnail\n    );\n\n    /** @dev Event to log a user participation in a challenge.\n      * @param id ID of the challenge.\n      * @param userAddress Address of the user.\n      */\n    event challengeParticipation(uint indexed id, address indexed userAddress);\n\n    /** @dev Event to log a user submissions in a challenge.\n      * @param id ID of the challenge.\n      * @param code Code proving timestamp and user ownership.\n      * @param videoDuration Duration of the submitted video.\n      * @param ipfsHash Ipfs hash pointing where the video has been stored.\n      */\n    event challengeSubmission(\n        uint indexed id,\n        address indexed userAddress,\n        bytes32 code,\n        uint videoDuration,\n        string ipfsHash\n    );\n\n    /** @dev Event to log when a challenge has been closed.\n      * @param id ID of the challenge.\n      * @param winner Indicates if there have been submisisons in the challenge and therefore a winner.\n      * @param winnerAddress Address of the challenge winner. In case of no winner the address will be '0x0'.\n      * @param prizeAmount Prize amount won by the winner. In case of no winner the prize will be 0.\n      * @param randomNumber Random number from wich the winner is selected among all participants who submitted a video.\n      */\n    event challengeClosed(\n        uint indexed id,\n        bool indexed winner,\n        address indexed winnerAddress,\n        uint prizeAmount,\n        uint randomNumber\n    );\n\n\n    /** @dev Event to log when a Oraclize query has or has not been triggered.\n      * @param id ID of the challenge.\n      * @param message Message to describe if the query was triggered or not.\n      */\n    event LogNewOraclizeQuery(uint indexed id, string message);\n\n\n    struct Challenge {\n        uint bettingPrice;\n        uint openTime;\n        uint closeTime;\n        uint participantsCounter;\n        address[] submissionsIndex;\n        mapping(address => bool) participants;\n        mapping(address => bool) submissions;\n    }\n\n    mapping(uint => Challenge) public challenges;\n    uint public challengesCounter;\n    uint[] challengesClosingOrder;\n    uint challengesClosingOrderStartIndex;\n\n    uint public submitDelay;\n    uint public txDelay;\n    uint public secondsPerBlock;\n\n    mapping(bytes32 => bool) validOraclizeIds;\n    mapping(address => uint) public balances;\n\n\n    /** @dev Works as constract constructor to initialize state variables as it is sharing storage with a Proxy contract.\n      * @param _submitDelay Initial allowed delay in seconds for users to submit the video.\n      * @param _txDelay Intial allowed transaction delay in seconds.\n      * @param _secondsPerBlock Initial calculation of how many seconds takes a block in average to be mined.\n      */\n    function initialize(\n        uint _submitDelay,\n        uint _txDelay,\n        uint _secondsPerBlock\n    )\n        external\n    {\n        //OAR = OraclizeAddrResolverI(0x6f485C8BF6fc43eA212E93BBF8ce046C7f1cb475);\n        oraclize_setProof(proofType_TLSNotary | proofStorage_IPFS);\n        submitDelay = _submitDelay;\n        txDelay = _txDelay;\n        secondsPerBlock = _secondsPerBlock;\n    }\n\n    /** @dev Sets a new video submission allowed delay.\n      * @param _submitDelay New allowed delay in seconds for users to submit the video.\n      */\n    function setSubmitDelay(uint _submitDelay) external onlyOwner {\n        submitDelay = _submitDelay;\n    }\n\n    /** @dev Sets a new allowed transaction delay.\n      * @param _txDelay New allowed transaction delay in seconds.\n      */\n    function setTxDelay(uint _txDelay) external onlyOwner {\n        txDelay = _txDelay;\n    }\n\n    /** @dev Sets a new allowed transaction delay.\n      * @param _secondsPerBlock New calculation of how many seconds takes a block in average to be mined.\n      */\n    function setSecondsPerBlock(uint _secondsPerBlock) external onlyOwner {\n        secondsPerBlock = _secondsPerBlock;\n    }\n\n    /** @dev Creates a new challenge.\n      * @param _title Title of the challenge.\n      * @param _summary Summary of the new challenge.\n      * @param _description Description of the new challenge.\n      * @param _thumbnail Thumbnail of the new challenge.\n      * @param _openTime Time the Open time will finish as milliseconds since UNIX epochTime.\n      * @param _closeTime Time the Ongoing time will finish as milliseconds since UNIX epochTime.\n      * @param _bettingPrice Entry fee in finney users have to pay to participate in the challenge.\n      */\n    function createChallenge(\n        bytes32 _title,\n        string _summary,\n        string _description,\n        string _thumbnail,\n        uint _openTime,\n        uint _closeTime,\n        uint _bettingPrice\n    )\n        external\n        onlyOwner\n        returns(bool)\n    {\n        challenges[challengesCounter] = Challenge({\n          bettingPrice: _bettingPrice,\n          openTime: _openTime,\n          closeTime: _closeTime,\n          participantsCounter: 0,\n          submissionsIndex: new address[](0)\n        });\n\n        orderChallengesToCloseById(_closeTime);\n        queryToCloseChallenge(challenges[challengesCounter].closeTime);\n        emit challengeCreation(challengesCounter, _title, _summary, _description, _thumbnail);\n        challengesCounter++;\n    }\n\n    /** @dev User participates in a Challenge.\n      * @param _challengeId ID of the challenge the user is participating.\n      */\n    function participate(\n        uint _challengeId\n    )\n        external\n        payable\n        userHasNotParticipated(_challengeId, msg.sender)\n        whenNotPaused\n        challengeIsOpen(_challengeId)\n    {\n        require(msg.value >= challenges[_challengeId].bettingPrice);\n        challenges[_challengeId].participants[msg.sender] = true;\n        challenges[_challengeId].participantsCounter++;\n        emit challengeParticipation(_challengeId, msg.sender);\n    }\n\n    /** @dev User submits a video for a challenge.\n      * @param _challengeId id ID of the challenge.\n      * @param _blockNumber Number of current block when video started to be recorder.\n      * @param _code Code proving timestamp and user ownership.\n      * @param _videoDuration Duration of the submitted video.\n      * @param _ipfsHash Ipfs hash pointing where the video has been stored.\n      */\n    function submit (\n        uint _challengeId,\n        uint _blockNumber,\n        bytes32 _code,\n        uint _videoDuration,\n        string _ipfsHash\n    )\n        external\n        userHasNotSubmitted(_challengeId, msg.sender)\n        whenNotPaused\n        challengeIsOngoing(_challengeId)\n        returns(bool)\n    {\n        require(userIsParticipating(_challengeId, msg.sender));\n        require(verifySubmission(_blockNumber, _code, msg.sender, _videoDuration) == true);\n        challenges[_challengeId].submissionsIndex.push(msg.sender);\n        challenges[_challengeId].submissions[msg.sender] = true;\n        emit challengeSubmission(_challengeId, msg.sender, _code, _videoDuration, _ipfsHash);\n        return true;\n    }\n\n    /** @dev User withdraws his balance.\n      * @param _amount Amount to withdraw.\n      */\n    function userWithdraw(uint _amount) external whenNotPaused {\n        require(balances[msg.sender] >= _amount);\n        balances[msg.sender] -= _amount;\n        msg.sender.transfer(_amount);\n    }\n\n    /** @dev Destruct contract and send balance to the owner.\n      */\n    function kill() external onlyOwner {\n        selfdestruct(proxyOwner());\n    }\n\n    /** @dev Callback called by Oraclize to close a challenge.\n      * @param _myid Oraclize query unique ID.\n      * @param _result Result of the query\n      */\n    function __callback(bytes32 _myid, string _result, bytes _proof) public whenNotPaused {\n        require(validOraclizeIds[_myid]);\n        require(msg.sender == oraclize_cbAddress());\n        closeChallenge(parseInt(_result));\n    }\n\n    /** @dev Custom getter function to check if a user is participating in a certain challenge.\n      * @param _challengeId ID of the challenge.\n      * @param _userAddress Address of the user.\n      * @return True if user is participating\n      */\n    function userIsParticipating(uint _challengeId, address _userAddress) public view returns(bool) {\n        return challenges[_challengeId].participants[_userAddress];\n    }\n\n    /** @dev Custom getter function to check if a user has submitted a video in a certain challenge.\n      * @param _challengeId ID of the challenge.\n      * @param _userAddress Address of the user.\n      * @return True if user is participating\n      */\n    function userHasSubmitted(uint _challengeId, address _userAddress) public view returns(bool) {\n        return challenges[_challengeId].submissions[_userAddress];\n    }\n\n    /** @dev Orders in an array the ids of the challenges in function of when they have to be closed.\n      * @param _closeTime Time the Ongoing time will finish as milliseconds since UNIX epochTime.\n      */\n    function orderChallengesToCloseById(uint _closeTime) internal {\n        uint id = challengesCounter;\n        uint length = challengesClosingOrder.length;\n        uint startIndex = challengesClosingOrderStartIndex;\n\n        if (length == startIndex) {\n            challengesClosingOrder.push(id);\n        } else {\n            for (uint i=length-1; i >= startIndex; i--) {\n                if (i == length-1 && _closeTime >= challenges[challengesClosingOrder[i]].closeTime) {\n                    challengesClosingOrder.push(id);\n                    break;\n                }\n                if (_closeTime >= challenges[challengesClosingOrder[i]].closeTime) {\n                    challengesClosingOrder.length = length + 1;\n                    for (uint j=length; j > i; j--) {\n                        challengesClosingOrder[j] = challengesClosingOrder[j-1];\n                    }\n                    challengesClosingOrder[i+1] = id;\n                    break;\n                }\n                if (i == startIndex) {\n                    challengesClosingOrder.length = length + 1;\n                    for (uint k=length; k > i; k--) {\n                        challengesClosingOrder[k] = challengesClosingOrder[k-1];\n                    }\n                    challengesClosingOrder[i] = id;\n                    break;\n              }\n            }\n        }\n    }\n\n    /** @dev Triggers the query that will be handled by Oraclize\n      * @param _closeTime Time the Ongoing time will finish as milliseconds since UNIX epochTime.\n      */\n    function queryToCloseChallenge(uint _closeTime) internal {\n        if (oraclize_getPrice(\"URL\") > address(this).balance) {\n            emit LogNewOraclizeQuery(challengesCounter, \"Oraclize query was NOT sent, please add some ETH to cover for the query fee\");\n        } else {\n            emit LogNewOraclizeQuery(challengesCounter, \"Oraclize query was sent, standing by for the answer..\");\n            uint delay = _closeTime - now - txDelay;\n            bytes32 queryId = oraclize_query(\n                                delay,\n                                \"URL\", \"https://www.random.org/integers/?num=1&min=1&max=10000&col=1&base=10&format=plain&rnd=new\"\n                              );\n            validOraclizeIds[queryId] = true;\n        }\n    }\n\n    /** @dev Verifies if the data attached in the submission match with the blockchain derived data.\n      * @param _blockNumber Current block number when the video started to be recorded.\n      * @param _userAddress uPort user address.\n      * @param _videoDuration Duration of the submitted video.\n      * @return true if verificaton succeded\n      */\n    function verifySubmission(\n        uint _blockNumber,\n        bytes32 _code,\n        address _userAddress,\n        uint _videoDuration\n    )\n        internal\n        view\n        returns(bool)\n    {\n        bytes32 blockHash = blockhash(_blockNumber);\n        bytes32 code = keccak256(abi.encodePacked(_userAddress, blockHash));\n\n        if (_code != code) {\n            return false;\n        }\n\n        uint currentBlockNumber = block.number;\n        uint challengeDuration = _videoDuration.add(submitDelay);\n        uint timeBetweenBlocks = (currentBlockNumber.sub(_blockNumber)).mul(secondsPerBlock);\n\n        if (timeBetweenBlocks > challengeDuration) {\n            return false;\n        }\n        return true;\n    }\n\n    /** @dev Close the challenge in the last postion of challengesClosingOrder.\n      * @param _randomNumber Random number retrieved by Oraclize API call.\n      */\n    function closeChallenge(uint _randomNumber) internal {\n        uint id = challengesClosingOrder[challengesClosingOrderStartIndex];\n        delete challengesClosingOrder[challengesClosingOrderStartIndex];\n        challengesClosingOrderStartIndex++;\n\n        if (challenges[id].submissionsIndex.length >= 1) {\n            address winnerAddress = chooseWinner(id, _randomNumber);\n            uint prizeAmount = givePrizeToWinner(id, winnerAddress);\n            emit challengeClosed(id, true, winnerAddress, prizeAmount, _randomNumber);\n        } else {\n            emit challengeClosed(id, false, address(0), 0, 0);\n        }\n    }\n\n    /** @dev Selects a winner userd based on the random number.\n      * @param _challengeId ID of the challenge for a user to be selected as winner.\n      * @param _randomNumber Random number retrieved by Oraclize API call.\n      * @return the address of the winner.\n      */\n    function chooseWinner(uint _challengeId, uint _randomNumber) internal view returns(address) {\n        uint winnerIndex = _randomNumber%((challenges[_challengeId].submissionsIndex.length - 1) + 1);\n        return challenges[_challengeId].submissionsIndex[winnerIndex];\n    }\n\n    /** @dev Adds the prize amount in finney to the balance of the winner user.\n      * @param _challengeId ID of the challenge for a user to be selected as winner.\n      * @param _winnerAddress uPort address of the winner user.\n      * @return the prize amount.\n      */\n    function givePrizeToWinner(uint _challengeId, address _winnerAddress) internal returns(uint) {\n        uint prizeAmount = challenges[_challengeId].participantsCounter.mul(challenges[_challengeId].bettingPrice);\n        balances[_winnerAddress] = balances[_winnerAddress].add(prizeAmount);\n        return prizeAmount;\n    }\n}\n",
  "sourcePath": "/Users/Nacho/ETHEREUM/DChallenge/contracts/DChallenge.sol",
  "compiler": {
    "name": "solc",
    "version": "0.4.24+commit.e67f0147.Emscripten.clang"
  },
  "schemaVersion": "2.0.1",
  "updatedAt": "2018-08-28T02:42:18.526Z"
}